:020000040000FA
:1000000005EF00F0956A9368120002EC00F0505082
:100010004BE050060EEC00F007EF00F0000E505CD5
:100020001BE0010E505C1CE0020E505C1DE0030E54
:10003000505C1EE0040E505C1FE0050E505C20E09A
:10004000060E505C21E0070E505C22E0080E505C6A
:1000500023E0090E505C24E07E0E836E07EF00F073
:10006000300E836E07EF00F06D0E836E07EF00F029
:10007000790E836E07EF00F0330E836E07EF00F00A
:100080005B0E836E07EF00F05F0E836E07EF00F0EC
:10009000700E836E07EF00F07F0E836E07EF00F0A7
:1000A0007B0E836E07EF00F00A0E506E07EF00F034
:0E00B000400E606F602F58EF00F007EF00F079
:0200BE00000040
:020000040030CA
:0100000000FF
:010001000BF3
:010002001FDE
:010003001EDE
:010005008179
:010006008475
:010008000FE8
:01000900C036
:01000A000FE6
:01000B00E014
:01000C000FE4
:01000D0040B2
:00000001FF
